{
  "contractName": "SupplyChain",
  "abi": [
    {
      "anonymous": false,
      "inputs": [
        {
          "indexed": false,
          "internalType": "uint32",
          "name": "productId",
          "type": "uint32"
        }
      ],
      "name": "TransferOwnership",
      "type": "event"
    },
    {
      "inputs": [],
      "name": "owner_Id",
      "outputs": [
        {
          "internalType": "uint32",
          "name": "",
          "type": "uint32"
        }
      ],
      "stateMutability": "view",
      "type": "function",
      "constant": true
    },
    {
      "inputs": [
        {
          "internalType": "uint32",
          "name": "",
          "type": "uint32"
        }
      ],
      "name": "ownerships",
      "outputs": [
        {
          "internalType": "uint32",
          "name": "productId",
          "type": "uint32"
        },
        {
          "internalType": "uint32",
          "name": "ownerId",
          "type": "uint32"
        },
        {
          "internalType": "uint32",
          "name": "trxTimeStamp",
          "type": "uint32"
        },
        {
          "internalType": "address",
          "name": "productOwner",
          "type": "address"
        }
      ],
      "stateMutability": "view",
      "type": "function",
      "constant": true
    },
    {
      "inputs": [],
      "name": "participant_Id",
      "outputs": [
        {
          "internalType": "uint32",
          "name": "",
          "type": "uint32"
        }
      ],
      "stateMutability": "view",
      "type": "function",
      "constant": true
    },
    {
      "inputs": [
        {
          "internalType": "uint32",
          "name": "",
          "type": "uint32"
        }
      ],
      "name": "participants",
      "outputs": [
        {
          "internalType": "string",
          "name": "userName",
          "type": "string"
        },
        {
          "internalType": "string",
          "name": "password",
          "type": "string"
        },
        {
          "internalType": "string",
          "name": "participantType",
          "type": "string"
        },
        {
          "internalType": "address",
          "name": "participantAddress",
          "type": "address"
        }
      ],
      "stateMutability": "view",
      "type": "function",
      "constant": true
    },
    {
      "inputs": [
        {
          "internalType": "uint32",
          "name": "",
          "type": "uint32"
        },
        {
          "internalType": "uint256",
          "name": "",
          "type": "uint256"
        }
      ],
      "name": "productTrack",
      "outputs": [
        {
          "internalType": "uint32",
          "name": "",
          "type": "uint32"
        }
      ],
      "stateMutability": "view",
      "type": "function",
      "constant": true
    },
    {
      "inputs": [],
      "name": "product_Id",
      "outputs": [
        {
          "internalType": "uint32",
          "name": "",
          "type": "uint32"
        }
      ],
      "stateMutability": "view",
      "type": "function",
      "constant": true
    },
    {
      "inputs": [
        {
          "internalType": "uint32",
          "name": "",
          "type": "uint32"
        }
      ],
      "name": "products",
      "outputs": [
        {
          "internalType": "string",
          "name": "modelNumber",
          "type": "string"
        },
        {
          "internalType": "string",
          "name": "partNumber",
          "type": "string"
        },
        {
          "internalType": "string",
          "name": "serialNumber",
          "type": "string"
        },
        {
          "internalType": "address",
          "name": "productOwner",
          "type": "address"
        },
        {
          "internalType": "uint32",
          "name": "cost",
          "type": "uint32"
        },
        {
          "internalType": "uint32",
          "name": "mfgTimeStamp",
          "type": "uint32"
        }
      ],
      "stateMutability": "view",
      "type": "function",
      "constant": true
    },
    {
      "inputs": [
        {
          "internalType": "string",
          "name": "_name",
          "type": "string"
        },
        {
          "internalType": "string",
          "name": "_pass",
          "type": "string"
        },
        {
          "internalType": "address",
          "name": "_pAdd",
          "type": "address"
        },
        {
          "internalType": "string",
          "name": "_pType",
          "type": "string"
        }
      ],
      "name": "addParticipant",
      "outputs": [
        {
          "internalType": "uint32",
          "name": "",
          "type": "uint32"
        }
      ],
      "stateMutability": "nonpayable",
      "type": "function"
    },
    {
      "inputs": [
        {
          "internalType": "uint32",
          "name": "_productId",
          "type": "uint32"
        }
      ],
      "name": "getParticipant",
      "outputs": [
        {
          "internalType": "string",
          "name": "",
          "type": "string"
        },
        {
          "internalType": "address",
          "name": "",
          "type": "address"
        },
        {
          "internalType": "string",
          "name": "",
          "type": "string"
        }
      ],
      "stateMutability": "view",
      "type": "function",
      "constant": true
    },
    {
      "inputs": [
        {
          "internalType": "uint32",
          "name": "_ownerId",
          "type": "uint32"
        },
        {
          "internalType": "string",
          "name": "_modelNumber",
          "type": "string"
        },
        {
          "internalType": "string",
          "name": "_partNumber",
          "type": "string"
        },
        {
          "internalType": "string",
          "name": "_serialNumber",
          "type": "string"
        },
        {
          "internalType": "uint32",
          "name": "_productCost",
          "type": "uint32"
        }
      ],
      "name": "addProduct",
      "outputs": [
        {
          "internalType": "uint32",
          "name": "",
          "type": "uint32"
        }
      ],
      "stateMutability": "nonpayable",
      "type": "function"
    },
    {
      "inputs": [
        {
          "internalType": "uint32",
          "name": "_productId",
          "type": "uint32"
        }
      ],
      "name": "getProduct",
      "outputs": [
        {
          "internalType": "string",
          "name": "",
          "type": "string"
        },
        {
          "internalType": "string",
          "name": "",
          "type": "string"
        },
        {
          "internalType": "string",
          "name": "",
          "type": "string"
        },
        {
          "internalType": "uint32",
          "name": "",
          "type": "uint32"
        },
        {
          "internalType": "address",
          "name": "",
          "type": "address"
        },
        {
          "internalType": "uint32",
          "name": "",
          "type": "uint32"
        }
      ],
      "stateMutability": "view",
      "type": "function",
      "constant": true
    },
    {
      "inputs": [
        {
          "internalType": "uint32",
          "name": "_user1Id",
          "type": "uint32"
        },
        {
          "internalType": "uint32",
          "name": "_user2Id",
          "type": "uint32"
        },
        {
          "internalType": "uint32",
          "name": "_prodId",
          "type": "uint32"
        }
      ],
      "name": "newOwner",
      "outputs": [
        {
          "internalType": "bool",
          "name": "",
          "type": "bool"
        }
      ],
      "stateMutability": "nonpayable",
      "type": "function"
    },
    {
      "inputs": [
        {
          "internalType": "uint32",
          "name": "_prodId",
          "type": "uint32"
        }
      ],
      "name": "getProvenance",
      "outputs": [
        {
          "internalType": "uint32[]",
          "name": "",
          "type": "uint32[]"
        }
      ],
      "stateMutability": "view",
      "type": "function",
      "constant": true
    },
    {
      "inputs": [
        {
          "internalType": "uint32",
          "name": "_regId",
          "type": "uint32"
        }
      ],
      "name": "getOwnership",
      "outputs": [
        {
          "internalType": "uint32",
          "name": "",
          "type": "uint32"
        },
        {
          "internalType": "uint32",
          "name": "",
          "type": "uint32"
        },
        {
          "internalType": "address",
          "name": "",
          "type": "address"
        },
        {
          "internalType": "uint32",
          "name": "",
          "type": "uint32"
        }
      ],
      "stateMutability": "view",
      "type": "function",
      "constant": true
    },
    {
      "inputs": [
        {
          "internalType": "uint32",
          "name": "_uid",
          "type": "uint32"
        },
        {
          "internalType": "string",
          "name": "_uname",
          "type": "string"
        },
        {
          "internalType": "string",
          "name": "_pass",
          "type": "string"
        },
        {
          "internalType": "string",
          "name": "_utype",
          "type": "string"
        }
      ],
      "name": "authenticateParticipant",
      "outputs": [
        {
          "internalType": "bool",
          "name": "",
          "type": "bool"
        }
      ],
      "stateMutability": "view",
      "type": "function",
      "constant": true
    }
  ],
  "bytecode": "0x608060405260008060006101000a81548163ffffffff021916908363ffffffff16021790555060008060046101000a81548163ffffffff021916908363ffffffff16021790555060008060086101000a81548163ffffffff021916908363ffffffff16021790555034801561007357600080fd5b50613000806100836000396000f3fe608060405234801561001057600080fd5b50600436106100f55760003560e01c806381e1561011610097578063c856956511610066578063c8569565146102f8578063df6d23f114610328578063e5a913561461035b578063ebf43a7e14610379576100f5565b806381e156101461023d578063913d278d14610270578063a638ac491461028e578063bf712fd6146102c3576100f5565b806350632104116100d3578063506321041461018c57806366e779fd146101bc578063721b5743146101da5780637d0a9ac91461020a576100f5565b80631a074802146100fa5780632e9d52841461012a5780633b26a65d1461015a575b600080fd5b610114600480360381019061010f91906122d2565b6103a9565b6040516101219190612321565b60405180910390f35b610144600480360381019061013f919061233c565b6103f2565b60405161015191906123aa565b60405180910390f35b610174600480360381019061016f91906123c5565b611212565b604051610183939291906124c3565b60405180910390f35b6101a660048036038101906101a1919061263d565b6113c4565b6040516101b39190612321565b60405180910390f35b6101c4611643565b6040516101d19190612321565b60405180910390f35b6101f460048036038101906101ef919061270c565b611659565b60405161020191906123aa565b60405180910390f35b610224600480360381019061021f91906123c5565b6117cf565b60405161023494939291906127c7565b60405180910390f35b610257600480360381019061025291906123c5565b6119b7565b6040516102679493929190612821565b60405180910390f35b610278611a37565b6040516102859190612321565b60405180910390f35b6102a860048036038101906102a391906123c5565b611a4d565b6040516102ba96959493929190612866565b60405180910390f35b6102dd60048036038101906102d891906123c5565b611d1f565b6040516102ef969594939291906128dc565b60405180910390f35b610312600480360381019061030d91906123c5565b611f33565b60405161031f9190612a10565b60405180910390f35b610342600480360381019061033d91906123c5565b611fd6565b6040516103529493929190612a32565b60405180910390f35b6103636120f6565b6040516103709190612321565b60405180910390f35b610393600480360381019061038e9190612aa3565b61210a565b6040516103a09190612321565b60405180910390f35b600360205281600052604060002081815481106103c557600080fd5b9060005260206000209060089182820401919006600402915091509054906101000a900463ffffffff1681565b600081600160008263ffffffff1663ffffffff16815260200190815260200160002060030160009054906101000a900473ffffffffffffffffffffffffffffffffffffffff1673ffffffffffffffffffffffffffffffffffffffff163373ffffffffffffffffffffffffffffffffffffffff16146104a5576040517f08c379a000000000000000000000000000000000000000000000000000000000815260040161049c90612b84565b60405180910390fd5b6000600460008763ffffffff1663ffffffff1681526020019081526020016000206040518060800160405290816000820180546104e190612bd3565b80601f016020809104026020016040519081016040528092919081815260200182805461050d90612bd3565b801561055a5780601f1061052f5761010080835404028352916020019161055a565b820191906000526020600020905b81548152906001019060200180831161053d57829003601f168201915b5050505050815260200160018201805461057390612bd3565b80601f016020809104026020016040519081016040528092919081815260200182805461059f90612bd3565b80156105ec5780601f106105c1576101008083540402835291602001916105ec565b820191906000526020600020905b8154815290600101906020018083116105cf57829003601f168201915b5050505050815260200160028201805461060590612bd3565b80601f016020809104026020016040519081016040528092919081815260200182805461063190612bd3565b801561067e5780601f106106535761010080835404028352916020019161067e565b820191906000526020600020905b81548152906001019060200180831161066157829003601f168201915b505050505081526020016003820160009054906101000a900473ffffffffffffffffffffffffffffffffffffffff1673ffffffffffffffffffffffffffffffffffffffff1673ffffffffffffffffffffffffffffffffffffffff168152505090506000600460008763ffffffff1663ffffffff16815260200190815260200160002060405180608001604052908160008201805461071b90612bd3565b80601f016020809104026020016040519081016040528092919081815260200182805461074790612bd3565b80156107945780601f1061076957610100808354040283529160200191610794565b820191906000526020600020905b81548152906001019060200180831161077757829003601f168201915b505050505081526020016001820180546107ad90612bd3565b80601f01602080910402602001604051908101604052809291908181526020018280546107d990612bd3565b80156108265780601f106107fb57610100808354040283529160200191610826565b820191906000526020600020905b81548152906001019060200180831161080957829003601f168201915b5050505050815260200160028201805461083f90612bd3565b80601f016020809104026020016040519081016040528092919081815260200182805461086b90612bd3565b80156108b85780601f1061088d576101008083540402835291602001916108b8565b820191906000526020600020905b81548152906001019060200180831161089b57829003601f168201915b505050505081526020016003820160009054906101000a900473ffffffffffffffffffffffffffffffffffffffff1673ffffffffffffffffffffffffffffffffffffffff1673ffffffffffffffffffffffffffffffffffffffff16815250509050600080600881819054906101000a900463ffffffff168092919061093c90612c33565b91906101000a81548163ffffffff021916908363ffffffff16021790555090507fcec9b8e63c868f2f7f30368f1583e7aa39ae80e163d57a859fa5a90244b28ac183604001516040516020016109929190612c9b565b604051602081830303815290604052805190602001201480156109fe57507fb77c7d6bf62fa24fc205955093030c58325cd2d3d35fb486ede7594fb99635f582604001516040516020016109e69190612c9b565b60405160208183030381529060405280519060200120145b15610c3e5785600260008363ffffffff1663ffffffff16815260200190815260200160002060000160006101000a81548163ffffffff021916908363ffffffff1602179055508160600151600260008363ffffffff1663ffffffff168152602001908152602001600020600001600c6101000a81548173ffffffffffffffffffffffffffffffffffffffff021916908373ffffffffffffffffffffffffffffffffffffffff16021790555086600260008363ffffffff1663ffffffff16815260200190815260200160002060000160046101000a81548163ffffffff021916908363ffffffff16021790555042600260008363ffffffff1663ffffffff16815260200190815260200160002060000160086101000a81548163ffffffff021916908363ffffffff1602179055508160600151600160008863ffffffff1663ffffffff16815260200190815260200160002060030160006101000a81548173ffffffffffffffffffffffffffffffffffffffff021916908373ffffffffffffffffffffffffffffffffffffffff160217905550600360008763ffffffff1663ffffffff1681526020019081526020016000208190806001815401808255809150506001900390600052602060002090600891828204019190066004029091909190916101000a81548163ffffffff021916908363ffffffff1602179055507fa5470ac012c6e9dc500e62b1d3de0de58db49b3ab7cfebbfb126d9abd854199b86604051610c2a9190612321565b60405180910390a16001945050505061120a565b7fb77c7d6bf62fa24fc205955093030c58325cd2d3d35fb486ede7594fb99635f58360400151604051602001610c749190612c9b565b60405160208183030381529060405280519060200120148015610ce057507fb77c7d6bf62fa24fc205955093030c58325cd2d3d35fb486ede7594fb99635f58260400151604051602001610cc89190612c9b565b60405160208183030381529060405280519060200120145b15610f205785600260008363ffffffff1663ffffffff16815260200190815260200160002060000160006101000a81548163ffffffff021916908363ffffffff1602179055508160600151600260008363ffffffff1663ffffffff168152602001908152602001600020600001600c6101000a81548173ffffffffffffffffffffffffffffffffffffffff021916908373ffffffffffffffffffffffffffffffffffffffff16021790555086600260008363ffffffff1663ffffffff16815260200190815260200160002060000160046101000a81548163ffffffff021916908363ffffffff16021790555042600260008363ffffffff1663ffffffff16815260200190815260200160002060000160086101000a81548163ffffffff021916908363ffffffff1602179055508160600151600160008863ffffffff1663ffffffff16815260200190815260200160002060030160006101000a81548173ffffffffffffffffffffffffffffffffffffffff021916908373ffffffffffffffffffffffffffffffffffffffff160217905550600360008763ffffffff1663ffffffff1681526020019081526020016000208190806001815401808255809150506001900390600052602060002090600891828204019190066004029091909190916101000a81548163ffffffff021916908363ffffffff1602179055507fa5470ac012c6e9dc500e62b1d3de0de58db49b3ab7cfebbfb126d9abd854199b86604051610f0c9190612321565b60405180910390a16001945050505061120a565b7fb77c7d6bf62fa24fc205955093030c58325cd2d3d35fb486ede7594fb99635f58360400151604051602001610f569190612c9b565b60405160208183030381529060405280519060200120148015610fc257507fc0878b4b16a78e8085cba0ca02fc0924f1492924058d153153a3f286e0fd70ff8260400151604051602001610faa9190612c9b565b60405160208183030381529060405280519060200120145b156112025785600260008363ffffffff1663ffffffff16815260200190815260200160002060000160006101000a81548163ffffffff021916908363ffffffff1602179055508160600151600260008363ffffffff1663ffffffff168152602001908152602001600020600001600c6101000a81548173ffffffffffffffffffffffffffffffffffffffff021916908373ffffffffffffffffffffffffffffffffffffffff16021790555086600260008363ffffffff1663ffffffff16815260200190815260200160002060000160046101000a81548163ffffffff021916908363ffffffff16021790555042600260008363ffffffff1663ffffffff16815260200190815260200160002060000160086101000a81548163ffffffff021916908363ffffffff1602179055508160600151600160008863ffffffff1663ffffffff16815260200190815260200160002060030160006101000a81548173ffffffffffffffffffffffffffffffffffffffff021916908373ffffffffffffffffffffffffffffffffffffffff160217905550600360008763ffffffff1663ffffffff1681526020019081526020016000208190806001815401808255809150506001900390600052602060002090600891828204019190066004029091909190916101000a81548163ffffffff021916908363ffffffff1602179055507fa5470ac012c6e9dc500e62b1d3de0de58db49b3ab7cfebbfb126d9abd854199b866040516111ee9190612321565b60405180910390a16001945050505061120a565b600094505050505b509392505050565b606060006060600460008563ffffffff1663ffffffff168152602001908152602001600020600001600460008663ffffffff1663ffffffff16815260200190815260200160002060030160009054906101000a900473ffffffffffffffffffffffffffffffffffffffff16600460008763ffffffff1663ffffffff1681526020019081526020016000206002018280546112ab90612bd3565b80601f01602080910402602001604051908101604052809291908181526020018280546112d790612bd3565b80156113245780601f106112f957610100808354040283529160200191611324565b820191906000526020600020905b81548152906001019060200180831161130757829003601f168201915b5050505050925080805461133790612bd3565b80601f016020809104026020016040519081016040528092919081815260200182805461136390612bd3565b80156113b05780601f10611385576101008083540402835291602001916113b0565b820191906000526020600020905b81548152906001019060200180831161139357829003601f168201915b505050505090509250925092509193909250565b60007fcec9b8e63c868f2f7f30368f1583e7aa39ae80e163d57a859fa5a90244b28ac1600460008863ffffffff1663ffffffff1681526020019081526020016000206002016040516020016114199190612d4a565b604051602081830303815290604052805190602001200361163557600080600081819054906101000a900463ffffffff168092919061145790612c33565b91906101000a81548163ffffffff021916908363ffffffff160217905550905085600160008363ffffffff1663ffffffff16815260200190815260200160002060000190816114a69190612ef8565b5084600160008363ffffffff1663ffffffff16815260200190815260200160002060010190816114d69190612ef8565b5083600160008363ffffffff1663ffffffff16815260200190815260200160002060020190816115069190612ef8565b50600460008863ffffffff1663ffffffff16815260200190815260200160002060030160009054906101000a900473ffffffffffffffffffffffffffffffffffffffff16600160008363ffffffff1663ffffffff16815260200190815260200160002060030160006101000a81548173ffffffffffffffffffffffffffffffffffffffff021916908373ffffffffffffffffffffffffffffffffffffffff16021790555082600160008363ffffffff1663ffffffff16815260200190815260200160002060030160146101000a81548163ffffffff021916908363ffffffff16021790555042600160008363ffffffff1663ffffffff16815260200190815260200160002060030160186101000a81548163ffffffff021916908363ffffffff1602179055508091505061163a565b600090505b95945050505050565b600060049054906101000a900463ffffffff1681565b60008160405160200161166c9190612c9b565b60405160208183030381529060405280519060200120600460008763ffffffff1663ffffffff1681526020019081526020016000206002016040516020016116b49190612d4a565b60405160208183030381529060405280519060200120036117c257836040516020016116e09190612c9b565b60405160208183030381529060405280519060200120600460008763ffffffff1663ffffffff1681526020019081526020016000206000016040516020016117289190612d4a565b60405160208183030381529060405280519060200120036117c157826040516020016117549190612c9b565b60405160208183030381529060405280519060200120600460008763ffffffff1663ffffffff16815260200190815260200160002060010160405160200161179c9190612d4a565b60405160208183030381529060405280519060200120036117c057600190506117c7565b5b5b600090505b949350505050565b60046020528060005260406000206000915090508060000180546117f290612bd3565b80601f016020809104026020016040519081016040528092919081815260200182805461181e90612bd3565b801561186b5780601f106118405761010080835404028352916020019161186b565b820191906000526020600020905b81548152906001019060200180831161184e57829003601f168201915b50505050509080600101805461188090612bd3565b80601f01602080910402602001604051908101604052809291908181526020018280546118ac90612bd3565b80156118f95780601f106118ce576101008083540402835291602001916118f9565b820191906000526020600020905b8154815290600101906020018083116118dc57829003601f168201915b50505050509080600201805461190e90612bd3565b80601f016020809104026020016040519081016040528092919081815260200182805461193a90612bd3565b80156119875780601f1061195c57610100808354040283529160200191611987565b820191906000526020600020905b81548152906001019060200180831161196a57829003601f168201915b5050505050908060030160009054906101000a900473ffffffffffffffffffffffffffffffffffffffff16905084565b60026020528060005260406000206000915090508060000160009054906101000a900463ffffffff16908060000160049054906101000a900463ffffffff16908060000160089054906101000a900463ffffffff169080600001600c9054906101000a900473ffffffffffffffffffffffffffffffffffffffff16905084565b600060089054906101000a900463ffffffff1681565b60608060606000806000600160008863ffffffff1663ffffffff168152602001908152602001600020600001600160008963ffffffff1663ffffffff168152602001908152602001600020600101600160008a63ffffffff1663ffffffff168152602001908152602001600020600201600160008b63ffffffff1663ffffffff16815260200190815260200160002060030160149054906101000a900463ffffffff16600160008c63ffffffff1663ffffffff16815260200190815260200160002060030160009054906101000a900473ffffffffffffffffffffffffffffffffffffffff16600160008d63ffffffff1663ffffffff16815260200190815260200160002060030160189054906101000a900463ffffffff16858054611b7290612bd3565b80601f0160208091040260200160405190810160405280929190818152602001828054611b9e90612bd3565b8015611beb5780601f10611bc057610100808354040283529160200191611beb565b820191906000526020600020905b815481529060010190602001808311611bce57829003601f168201915b50505050509550848054611bfe90612bd3565b80601f0160208091040260200160405190810160405280929190818152602001828054611c2a90612bd3565b8015611c775780601f10611c4c57610100808354040283529160200191611c77565b820191906000526020600020905b815481529060010190602001808311611c5a57829003601f168201915b50505050509450838054611c8a90612bd3565b80601f0160208091040260200160405190810160405280929190818152602001828054611cb690612bd3565b8015611d035780601f10611cd857610100808354040283529160200191611d03565b820191906000526020600020905b815481529060010190602001808311611ce657829003601f168201915b5050505050935095509550955095509550955091939550919395565b6001602052806000526040600020600091509050806000018054611d4290612bd3565b80601f0160208091040260200160405190810160405280929190818152602001828054611d6e90612bd3565b8015611dbb5780601f10611d9057610100808354040283529160200191611dbb565b820191906000526020600020905b815481529060010190602001808311611d9e57829003601f168201915b505050505090806001018054611dd090612bd3565b80601f0160208091040260200160405190810160405280929190818152602001828054611dfc90612bd3565b8015611e495780601f10611e1e57610100808354040283529160200191611e49565b820191906000526020600020905b815481529060010190602001808311611e2c57829003601f168201915b505050505090806002018054611e5e90612bd3565b80601f0160208091040260200160405190810160405280929190818152602001828054611e8a90612bd3565b8015611ed75780601f10611eac57610100808354040283529160200191611ed7565b820191906000526020600020905b815481529060010190602001808311611eba57829003601f168201915b5050505050908060030160009054906101000a900473ffffffffffffffffffffffffffffffffffffffff16908060030160149054906101000a900463ffffffff16908060030160189054906101000a900463ffffffff16905086565b6060600360008363ffffffff1663ffffffff168152602001908152602001600020805480602002602001604051908101604052809291908181526020018280548015611fca57602002820191906000526020600020906000905b82829054906101000a900463ffffffff1663ffffffff1681526020019060040190602082600301049283019260010382029150808411611f8d5790505b50505050509050919050565b6000806000806000600260008763ffffffff1663ffffffff1681526020019081526020016000206040518060800160405290816000820160009054906101000a900463ffffffff1663ffffffff1663ffffffff1681526020016000820160049054906101000a900463ffffffff1663ffffffff1663ffffffff1681526020016000820160089054906101000a900463ffffffff1663ffffffff1663ffffffff16815260200160008201600c9054906101000a900473ffffffffffffffffffffffffffffffffffffffff1673ffffffffffffffffffffffffffffffffffffffff1673ffffffffffffffffffffffffffffffffffffffff1681525050905080600001518160200151826060015183604001519450945094509450509193509193565b60008054906101000a900463ffffffff1681565b6000806000600481819054906101000a900463ffffffff168092919061212f90612c33565b91906101000a81548163ffffffff021916908363ffffffff160217905550905085600460008363ffffffff1663ffffffff168152602001908152602001600020600001908161217e9190612ef8565b5084600460008363ffffffff1663ffffffff16815260200190815260200160002060010190816121ae9190612ef8565b5082600460008363ffffffff1663ffffffff16815260200190815260200160002060020190816121de9190612ef8565b5083600460008363ffffffff1663ffffffff16815260200190815260200160002060030160006101000a81548173ffffffffffffffffffffffffffffffffffffffff021916908373ffffffffffffffffffffffffffffffffffffffff16021790555080915050949350505050565b6000604051905090565b600080fd5b600080fd5b600063ffffffff82169050919050565b61227981612260565b811461228457600080fd5b50565b60008135905061229681612270565b92915050565b6000819050919050565b6122af8161229c565b81146122ba57600080fd5b50565b6000813590506122cc816122a6565b92915050565b600080604083850312156122e9576122e8612256565b5b60006122f785828601612287565b9250506020612308858286016122bd565b9150509250929050565b61231b81612260565b82525050565b60006020820190506123366000830184612312565b92915050565b60008060006060848603121561235557612354612256565b5b600061236386828701612287565b935050602061237486828701612287565b925050604061238586828701612287565b9150509250925092565b60008115159050919050565b6123a48161238f565b82525050565b60006020820190506123bf600083018461239b565b92915050565b6000602082840312156123db576123da612256565b5b60006123e984828501612287565b91505092915050565b600081519050919050565b600082825260208201905092915050565b60005b8381101561242c578082015181840152602081019050612411565b60008484015250505050565b6000601f19601f8301169050919050565b6000612454826123f2565b61245e81856123fd565b935061246e81856020860161240e565b61247781612438565b840191505092915050565b600073ffffffffffffffffffffffffffffffffffffffff82169050919050565b60006124ad82612482565b9050919050565b6124bd816124a2565b82525050565b600060608201905081810360008301526124dd8186612449565b90506124ec60208301856124b4565b81810360408301526124fe8184612449565b9050949350505050565b600080fd5b600080fd5b7f4e487b7100000000000000000000000000000000000000000000000000000000600052604160045260246000fd5b61254a82612438565b810181811067ffffffffffffffff8211171561256957612568612512565b5b80604052505050565b600061257c61224c565b90506125888282612541565b919050565b600067ffffffffffffffff8211156125a8576125a7612512565b5b6125b182612438565b9050602081019050919050565b82818337600083830152505050565b60006125e06125db8461258d565b612572565b9050828152602081018484840111156125fc576125fb61250d565b5b6126078482856125be565b509392505050565b600082601f83011261262457612623612508565b5b81356126348482602086016125cd565b91505092915050565b600080600080600060a0868803121561265957612658612256565b5b600061266788828901612287565b955050602086013567ffffffffffffffff8111156126885761268761225b565b5b6126948882890161260f565b945050604086013567ffffffffffffffff8111156126b5576126b461225b565b5b6126c18882890161260f565b935050606086013567ffffffffffffffff8111156126e2576126e161225b565b5b6126ee8882890161260f565b92505060806126ff88828901612287565b9150509295509295909350565b6000806000806080858703121561272657612725612256565b5b600061273487828801612287565b945050602085013567ffffffffffffffff8111156127555761275461225b565b5b6127618782880161260f565b935050604085013567ffffffffffffffff8111156127825761278161225b565b5b61278e8782880161260f565b925050606085013567ffffffffffffffff8111156127af576127ae61225b565b5b6127bb8782880161260f565b91505092959194509250565b600060808201905081810360008301526127e18187612449565b905081810360208301526127f58186612449565b905081810360408301526128098185612449565b905061281860608301846124b4565b95945050505050565b60006080820190506128366000830187612312565b6128436020830186612312565b6128506040830185612312565b61285d60608301846124b4565b95945050505050565b600060c08201905081810360008301526128808189612449565b905081810360208301526128948188612449565b905081810360408301526128a88187612449565b90506128b76060830186612312565b6128c460808301856124b4565b6128d160a0830184612312565b979650505050505050565b600060c08201905081810360008301526128f68189612449565b9050818103602083015261290a8188612449565b9050818103604083015261291e8187612449565b905061292d60608301866124b4565b61293a6080830185612312565b61294760a0830184612312565b979650505050505050565b600081519050919050565b600082825260208201905092915050565b6000819050602082019050919050565b61298781612260565b82525050565b6000612999838361297e565b60208301905092915050565b6000602082019050919050565b60006129bd82612952565b6129c7818561295d565b93506129d28361296e565b8060005b83811015612a035781516129ea888261298d565b97506129f5836129a5565b9250506001810190506129d6565b5085935050505092915050565b60006020820190508181036000830152612a2a81846129b2565b905092915050565b6000608082019050612a476000830187612312565b612a546020830186612312565b612a6160408301856124b4565b612a6e6060830184612312565b95945050505050565b612a80816124a2565b8114612a8b57600080fd5b50565b600081359050612a9d81612a77565b92915050565b60008060008060808587031215612abd57612abc612256565b5b600085013567ffffffffffffffff811115612adb57612ada61225b565b5b612ae78782880161260f565b945050602085013567ffffffffffffffff811115612b0857612b0761225b565b5b612b148782880161260f565b9350506040612b2587828801612a8e565b925050606085013567ffffffffffffffff811115612b4657612b4561225b565b5b612b528782880161260f565b91505092959194509250565b50565b6000612b6e6000836123fd565b9150612b7982612b5e565b600082019050919050565b60006020820190508181036000830152612b9d81612b61565b9050919050565b7f4e487b7100000000000000000000000000000000000000000000000000000000600052602260045260246000fd5b60006002820490506001821680612beb57607f821691505b602082108103612bfe57612bfd612ba4565b5b50919050565b7f4e487b7100000000000000000000000000000000000000000000000000000000600052601160045260246000fd5b6000612c3e82612260565b915063ffffffff8203612c5457612c53612c04565b5b600182019050919050565b600081905092915050565b6000612c75826123f2565b612c7f8185612c5f565b9350612c8f81856020860161240e565b80840191505092915050565b6000612ca78284612c6a565b915081905092915050565b60008190508160005260206000209050919050565b60008154612cd481612bd3565b612cde8186612c5f565b94506001821660008114612cf95760018114612d0e57612d41565b60ff1983168652811515820286019350612d41565b612d1785612cb2565b60005b83811015612d3957815481890152600182019150602081019050612d1a565b838801955050505b50505092915050565b6000612d568284612cc7565b915081905092915050565b60006020601f8301049050919050565b600082821b905092915050565b600060088302612dae7fffffffffffffffffffffffffffffffffffffffffffffffffffffffffffffffff82612d71565b612db88683612d71565b95508019841693508086168417925050509392505050565b6000819050919050565b6000612df5612df0612deb8461229c565b612dd0565b61229c565b9050919050565b6000819050919050565b612e0f83612dda565b612e23612e1b82612dfc565b848454612d7e565b825550505050565b600090565b612e38612e2b565b612e43818484612e06565b505050565b5b81811015612e6757612e5c600082612e30565b600181019050612e49565b5050565b601f821115612eac57612e7d81612cb2565b612e8684612d61565b81016020851015612e95578190505b612ea9612ea185612d61565b830182612e48565b50505b505050565b600082821c905092915050565b6000612ecf60001984600802612eb1565b1980831691505092915050565b6000612ee88383612ebe565b9150826002028217905092915050565b612f01826123f2565b67ffffffffffffffff811115612f1a57612f19612512565b5b612f248254612bd3565b612f2f828285612e6b565b600060209050601f831160018114612f625760008415612f50578287015190505b612f5a8582612edc565b865550612fc2565b601f198416612f7086612cb2565b60005b82811015612f9857848901518255600182019150602085019450602081019050612f73565b86831015612fb55784890151612fb1601f891682612ebe565b8355505b6001600288020188555050505b50505050505056fea2646970667358221220165180940a10e6e8d39144d5f7756e46830fef8079e7326493ca84a7bff2098f64736f6c63430008110033",
  "immutableReferences": {},
  "source": "// SPDX-License-Identifier: UNLICENSED\r\npragma solidity >=0.4.22 <0.9.0;\r\n\r\ncontract SupplyChain {\r\n    uint32 public product_Id = 0;\r\n    uint32 public participant_Id = 0;\r\n    uint32 public owner_Id = 0;\r\n\r\n    struct Product {\r\n        string modelNumber;\r\n        string partNumber;\r\n        string serialNumber;\r\n        address productOwner;\r\n        uint32 cost;\r\n        uint32 mfgTimeStamp;\r\n    }\r\n\r\n    mapping(uint32 => Product) public products;\r\n\r\n    struct Ownership {\r\n        uint32 productId;\r\n        uint32 ownerId;\r\n        uint32 trxTimeStamp;\r\n        address productOwner;\r\n    }\r\n\r\n    mapping(uint32 => Ownership) public ownerships; // ownership by Ownership ID (owner_id)\r\n    mapping(uint32 => uint32[]) public productTrack; // ownership by Product ID (product_id) / movement track for a product\r\n\r\n    struct Participant {\r\n        string userName;\r\n        string password;\r\n        string participantType;\r\n        address participantAddress;\r\n    }\r\n\r\n    mapping(uint32 => Participant) public participants;\r\n\r\n    event TransferOwnership(uint32 productId);\r\n\r\n    function addParticipant(\r\n        string memory _name,\r\n        string memory _pass,\r\n        address _pAdd,\r\n        string memory _pType\r\n    ) public returns (uint32) {\r\n        uint32 userId = participant_Id++;\r\n        participants[userId].userName = _name;\r\n        participants[userId].password = _pass;\r\n        participants[userId].participantType = _pType;\r\n        participants[userId].participantAddress = _pAdd;\r\n\r\n        return userId;\r\n    }\r\n\r\n    function getParticipant(uint32 _productId)\r\n        public\r\n        view\r\n        returns (\r\n            string memory,\r\n            address,\r\n            string memory\r\n        )\r\n    {\r\n        return (\r\n            participants[_productId].userName,\r\n            participants[_productId].participantAddress,\r\n            participants[_productId].participantType\r\n        );\r\n    }\r\n\r\n    function addProduct(\r\n        uint32 _ownerId,\r\n        string memory _modelNumber,\r\n        string memory _partNumber,\r\n        string memory _serialNumber,\r\n        uint32 _productCost\r\n    ) public returns (uint32) {\r\n        if (\r\n            keccak256(\r\n                abi.encodePacked(participants[_ownerId].participantType)\r\n            ) == keccak256(\"Manufacturer\")\r\n        ) {\r\n            uint32 productId = product_Id++;\r\n\r\n            products[productId].modelNumber = _modelNumber;\r\n            products[productId].partNumber = _partNumber;\r\n            products[productId].serialNumber = _serialNumber;\r\n            products[productId].productOwner = participants[_ownerId]\r\n                .participantAddress;\r\n            products[productId].cost = _productCost;\r\n            products[productId].mfgTimeStamp = uint32(block.timestamp);\r\n\r\n            return productId;\r\n        }\r\n\r\n        return 0;\r\n    }\r\n\r\n    function getProduct(uint32 _productId)\r\n        public\r\n        view\r\n        returns (\r\n            string memory,\r\n            string memory,\r\n            string memory,\r\n            uint32,\r\n            address,\r\n            uint32\r\n        )\r\n    {\r\n        return (\r\n            products[_productId].modelNumber,\r\n            products[_productId].partNumber,\r\n            products[_productId].serialNumber,\r\n            products[_productId].cost,\r\n            products[_productId].productOwner,\r\n            products[_productId].mfgTimeStamp\r\n        );\r\n    }\r\n\r\n    modifier onlyOwner(uint32 _productId) {\r\n        require(msg.sender == products[_productId].productOwner, \"\");\r\n        _;\r\n    }\r\n\r\n    //Following course code. Code can be improved\r\n    function newOwner(\r\n        uint32 _user1Id,\r\n        uint32 _user2Id,\r\n        uint32 _prodId\r\n    ) public onlyOwner(_prodId) returns (bool) {\r\n        Participant memory p1 = participants[_user1Id];\r\n        Participant memory p2 = participants[_user2Id];\r\n        uint32 ownership_id = owner_Id++;\r\n\r\n        if (\r\n            keccak256(abi.encodePacked(p1.participantType)) ==\r\n            keccak256(\"Manufacturer\") &&\r\n            keccak256(abi.encodePacked(p2.participantType)) ==\r\n            keccak256(\"Supplier\")\r\n        ) {\r\n            ownerships[ownership_id].productId = _prodId;\r\n            ownerships[ownership_id].productOwner = p2.participantAddress;\r\n            ownerships[ownership_id].ownerId = _user2Id;\r\n            ownerships[ownership_id].trxTimeStamp = uint32(block.timestamp);\r\n            products[_prodId].productOwner = p2.participantAddress;\r\n            productTrack[_prodId].push(ownership_id);\r\n            emit TransferOwnership(_prodId);\r\n\r\n            return (true);\r\n        } else if (\r\n            keccak256(abi.encodePacked(p1.participantType)) ==\r\n            keccak256(\"Supplier\") &&\r\n            keccak256(abi.encodePacked(p2.participantType)) ==\r\n            keccak256(\"Supplier\")\r\n        ) {\r\n            ownerships[ownership_id].productId = _prodId;\r\n            ownerships[ownership_id].productOwner = p2.participantAddress;\r\n            ownerships[ownership_id].ownerId = _user2Id;\r\n            ownerships[ownership_id].trxTimeStamp = uint32(block.timestamp);\r\n            products[_prodId].productOwner = p2.participantAddress;\r\n            productTrack[_prodId].push(ownership_id);\r\n            emit TransferOwnership(_prodId);\r\n\r\n            return (true);\r\n        } else if (\r\n            keccak256(abi.encodePacked(p1.participantType)) ==\r\n            keccak256(\"Supplier\") &&\r\n            keccak256(abi.encodePacked(p2.participantType)) ==\r\n            keccak256(\"Consumer\")\r\n        ) {\r\n            ownerships[ownership_id].productId = _prodId;\r\n            ownerships[ownership_id].productOwner = p2.participantAddress;\r\n            ownerships[ownership_id].ownerId = _user2Id;\r\n            ownerships[ownership_id].trxTimeStamp = uint32(block.timestamp);\r\n            products[_prodId].productOwner = p2.participantAddress;\r\n            productTrack[_prodId].push(ownership_id);\r\n            emit TransferOwnership(_prodId);\r\n\r\n            return (true);\r\n        }\r\n\r\n        return (false);\r\n    }\r\n\r\n    function getProvenance(uint32 _prodId)\r\n        external\r\n        view\r\n        returns (uint32[] memory)\r\n    {\r\n        return productTrack[_prodId];\r\n    }\r\n\r\n    function getOwnership(uint32 _regId)\r\n        public\r\n        view\r\n        returns (\r\n            uint32,\r\n            uint32,\r\n            address,\r\n            uint32\r\n        )\r\n    {\r\n        Ownership memory r = ownerships[_regId];\r\n        return (r.productId, r.ownerId, r.productOwner, r.trxTimeStamp);\r\n    }\r\n\r\n    //not very secure, just for testing purposes\r\n    function authenticateParticipant(\r\n        uint32 _uid,\r\n        string memory _uname,\r\n        string memory _pass,\r\n        string memory _utype\r\n    ) public view returns (bool) {\r\n        if (\r\n            keccak256(abi.encodePacked(participants[_uid].participantType)) ==\r\n            keccak256(abi.encodePacked(_utype))\r\n        ) {\r\n            if (\r\n                keccak256(abi.encodePacked(participants[_uid].userName)) ==\r\n                keccak256(abi.encodePacked(_uname))\r\n            ) {\r\n                if (\r\n                    keccak256(abi.encodePacked(participants[_uid].password)) ==\r\n                    keccak256(abi.encodePacked(_pass))\r\n                ) {\r\n                    return (true);\r\n                }\r\n            }\r\n        }\r\n\r\n        return (false);\r\n    }\r\n}\r\n",
  "sourcePath": "D:\\projects\\SupplyChainApp\\contracts\\SupplyChain.sol",
  "compiler": {
    "name": "solc",
    "version": "0.8.17+commit.8df45f5f.Emscripten.clang"
  },
  "schemaVersion": "3.4.11",
  "updatedAt": "2023-01-24T20:51:14.820Z",
  "networkType": "ethereum",
  "devdoc": {
    "kind": "dev",
    "methods": {},
    "version": 1
  },
  "userdoc": {
    "kind": "user",
    "methods": {},
    "version": 1
  }
}